:020000040800F2
:10000000E897002491040008ED01010845D5000897
:100010000BFD0008711F0008396101080000000095
:10002000000000000000000000000000D1030008F4
:1000300071380008000000002D0400085520010858
:10004000AB040008AB040008AB040008AB040008D4
:10005000AB040008AB040008AB040008AB040008C4
:10006000AB040008AB040008AB040008192E00081C
:10007000292E0008392E0008492E0008AB0400087C
:10008000592E0008AB040008AB040008353A0008FC
:10009000B53A0008453A0008C53A0008AB04000824
:1000A0000922010839220108292201081922010820
:1000B0004922010859220108AB040008AB040008DA
:1000C000AB040008AB040008AB040008AB04000854
:1000D000011D010835350108453501085535010870
:1000E000AB040008AB04000800000000AB040008EB
:1000F000AB040008AB040008AB040008692E00083C
:10010000AB040008AB040008AB040008AB04000813
:10011000AB040008E5260108AB040008AB040008A6
:10012000792E0008892E0008992E0008AB040008DB
:10013000A92E0008AB040008AB040008AB040008BB
:1001400000000000000000000000000000000000AF
:10015000B92E0008C92E0008D92E0008AB040008EB
:10016000AB040008AB040008AB040008AB040008B3
:10017000AB040008F1010108AB0400080000000016
:10018000AB040008AB040008F5260108AB04000826
:10019000AB040008AB040008111D0108AB04000803
:1001A000AB040008AB040008AB040008000000002A
:1001B000AB040008AB040008AB040008AB04000863
:1001C000AB040008AB0400080000000000000000C1
:1001D0000000000000000000AB0400080000000068
:1001E000000000000000000000000000000000000F
:1001F0000000000000000000AB040008AB04000891
:10020000AB040008AB04000800000000AB040008C9
:10021000AB040008AB040008AB040008AB04000802
:10022000AB04000800000000AB0400080000000060
:10023000AB040008AB04000800000000AB04000899
:10024000AB040008AB040008AB040008AB040008D2
:10025000AB040008AB040008AB040008AB040008C2
:10026000AB040008AB040008AB040008AB040008B2
:10027000AB040008AB040008AB0400080000000059
:10028000AB040008AB040008AB040008AB04000892
:1002900000000000AB040008AB04000800000000F0
:1002A00000000000AB040008AB040008AB04000829
:1002B00025350108AB040008AB040008393B0008F1
:1002C000493B0008AB040008AB04000800F002F84A
:1002D00000F06FF80AA090E8000C82448344AAF171
:1002E0000107DA4501D100F064F8AFF2090EBAE86F
:1002F0000F0013F0010F18BFFB1A43F0010318475A
:1003000064A4010084A4010010F8013B0A4413F026
:10031000030408BF10F8014B1D1108BF10F8015B62
:10032000641E05D010F8016B641E01F8016BF9D151
:10033000002D15D010F8014B03F00C030C2BA1EB92
:1003400004040ABF10F8013BA4EB8314A4EB0324BC
:1003500005F1010314F8016B5B1E01F8016BF9D57F
:10036000914238BF10F8013BD1D3704700230024DD
:1003700000250026103A28BF78C1FBD8520728BFB5
:1003800030C148BF0B607047642900F0AB81782909
:1003900000F0E481732900F0C484002070471FB589
:1003A00019F010FB9DE8030000F0CAFB1FBD10B55B
:1003B00010BD00F0E5FC1146FFF7F1FF16F047FE17
:1003C00000F003FD03B4FFF7F2FF03BC00F034FDBF
:1003D0002C4B19680868B0E8F04F80F30988BFF328
:1003E0006F8F4FF0000080F311887047000000000D
:1003F00008480068006880F308884FF0000080F328
:10040000148862B661B6BFF34F8FBFF36F8F00DF02
:1004100000BF00BF08ED00E0DFF80C00016841F408
:1004200070010160704700BF88ED00E0EFF30980C4
:10043000BFF36F8F134B1A681EF0100F08BF20ED2B
:10044000108A20E9F04F106009B44FF0500080F39B
:100450001188BFF34F8FBFF36F8F18F019FB4FF068
:10046000000080F3118809BC19680868B0E8F04FF3
:100470001EF0100F08BFB0EC108A80F30988BFF39C
:100480006F8F70479C000024EFF3058070470000D9
:100490000948804709480047FEE7FEE7FEE7FEE718
:1004A000FEE7FEE7FEE7FEE7FEE7FEE70448054954
:1004B000054A064B7047000029210108CD020008BB
:1004C000E88D0024E8970024E88F0024E88F0024BA
:1004D00070B5064600F018FB056806F10B0020F029
:1004E0000704B4429CBF002070BD2B466A68BAB1B5
:1004F0001068A04210D304F1080188423CBF506844
:10050000586007D35168101941601168091B0160D8
:1005100058601460101D70BD13465268002AE7D160
:100520002146284600F0F8FA0028DED170BD53EAD3
:10053000020C00F069802DE9F04B4FF00006002B13
:100540001FBFB3FA83F503FA05F424FA05F65E40FB
:1005500012BF1643B2FA82F502FA05F4C5F120057E
:100560001EBF22FA05FC44EA0C04203556EA044C6E
:100570004FEA144418BF641C4FF000084FF0000904
:10058000904271EB030C39D3002919BFB1FA81F7FE
:1005900001FA07F6B0FA80F700FA07F6C7F120076C
:1005A0001EBF20FA07FC46EA0C062037B6FBF4FC17
:1005B000A7EB0507103F07F01F0BCBF120060CFA45
:1005C0000BFB2CFA06F644BFB3460026202FA4BF2F
:1005D0005E464FF0000B5BEA060C08BF4FF0010BC4
:1005E00019EB0B09ABFB027C48EB0608C01B06FBB2
:1005F00002CC0BFB03CC71EB0C01C1E70B460246AE
:1006000041464846BDE8F08B13B54FF000004FF06F
:100610000001AFF30080BDE81C4070470FB41CB56B
:10062000074B06AA7B4469460090059800F04FFBF3
:100630000020694600F05EFB1CBC5DF814FB000066
:10064000CD06000070B5044685690068C10601D575
:10065000302600E02026C00707D070BDD4E9012174
:1006600030469047206A401C20626D1EF6D570BD52
:1006700070B5044685690078C00707D170BDD4E91C
:10068000012120209047206A401C20626D1EF6D573
:1006900070BD70B50C460546012A05D02878800645
:1006A00000D5EA69002302E0012305E05B1C9342C8
:1006B00002D2E05C0028F9D1A869E618C01AA86146
:1006C000286A184428622846FFF7BCFF04E0D5E9F1
:1006D000012114F8010B9047B442F8D32846FFF7E4
:1006E000C7FF70BD2DE9F04106460024106875294A
:1006F000314616A510D0AFF30080002802DA404240
:1007000013A507E031688A0701D512A502E0490761
:1007100004D511A5012401E0AFF3008000210A22D5
:1007200006F1240709E0B0FBF2FCB0FBF2F302FB98
:100730001C00303078541846491C0028F3D1234659
:100740002A463046BDE8F04100F062BA00000000E1
:100750002D0000002B0000002000000070B50446B2
:100760000D4621461068AFF300802188090502D5A7
:100770000F4A7A4402E00E4A7A440E32002104F114
:10078000240305E000F00F060009965D5E54491C45
:100790000028F7D120780023000704D5702D02D05F
:1007A00009B1022311322046BDE8704000F030BA92
:1007B000329701002DE9F05F894604464FF0000AA8
:1007C000DFF824B1FB44C0F820A02046E168884748
:1007D00000287DD0252806D0D4E901219047206A41
:1007E000401C2062F1E700255F462046E16888470B
:1007F0002028064607DB312E05D2B81910F8200C48
:1008000008B10543F1E7A80701D525F00405C4F8B0
:100810001CA00027C4F818A02A2E09D0304616F0D4
:1008200077FB38B304EB8708303EC8F8186019E04E
:1008300059F8041B204604EB87029161E168884760
:10084000012F064618D1E069002820DA25F020059E
:100850001DE0D8F8180000EB800006EB40003038AF
:10086000C8F818002046E1688847064616F050FB95
:100870000028EED1012F0AD02E2E08D12046E168A3
:1008800088477F1C0646022F45F02005C4DBA0697F
:10089000002803DA404245F00105A061E80701D0D5
:1008A00025F01005A6B1A6F14100192802D820367E
:1008B00045F400654A463146204625604D46FFF71F
:1008C00063FD60B1012807D0ED1D25F0070000E0B1
:1008D00007E000F1080978E705F1040975E73046FB
:1008E0007AE7206ABDE8F09F0897010040EA01031B
:1008F000024630B59B0710D14FF0013400E008C22A
:1009000008C91D1B9D4315EAC41FF8D013F0FF0151
:1009100002F8011B0DD01B0AF8E711F8013B002B70
:1009200002F8013B05D011F8013B002B02F8013B16
:10093000F3D130BD10B5431C02E010F8011B71B1BA
:100940008107FAD14FF0013202C88C1A8C4314EAA5
:10095000C211F9D0C01A0A0603D0C01E10BDC01AB9
:1009600010BD0A0401D0801E10BD0902FCD0401E3B
:1009700010BD032A40F2308010F0030C00F0158007
:1009800011F8013BBCF1020F624498BF11F801CB92
:1009900000F8013B38BF11F8013BA2F1040298BFF7
:1009A00000F801CB38BF00F8013B11F0030300F061
:1009B0002580083AC0F0088051F8043B083A51F805
:1009C00004CBA0E80810F5E7121D5CBF51F8043B0A
:1009D00040F8043BAFF30080D20724BF11F8013B7D
:1009E00011F801CB48BF11F8012B24BF00F8013BDF
:1009F00000F801CB48BF00F8012B704710B5203A32
:100A0000C0F00B80B1E81850203AA0E81850B1E8C7
:100A10001850A0E81850BFF4F5AF5FEA027C24BF7D
:100A2000B1E81850A0E8185044BF18C918C0BDE874
:100A300010405FEA827C24BF51F8043B40F8043B3D
:100A400008BF7047D20728BF31F8023B48BF11F8F2
:100A5000012B28BF20F8023B48BF00F8012B70474C
:100A600002F0FF0343EA032242EA024200F002B826
:100A70004FF000020429C0F0128010F0030C00F0C7
:100A80001B80CCF1040CBCF1020F18BF00F8012B45
:100A9000A8BF20F8022BA1EB0C0100F00DB85FEA13
:100AA000C17C24BF00F8012B00F8012B48BF00F8DF
:100AB000012B70474FF0000200B51346944696464E
:100AC000203922BFA0E80C50A0E80C50B1F1200161
:100AD000BFF4F7AF090728BFA0E80C5048BF0CC00F
:100AE0005DF804EB890028BF40F8042B08BF70476D
:100AF00048BF20F8022B11F0804F18BF00F8012BDF
:100B00007047704770477047004870478C8D0024CD
:100B1000704770477047704738B504460A46002052
:100B20006946AFF30080002808BF38BD024600992F
:100B3000204600F003F9012038BD012000F018B96B
:100B4000F8B5AFF30080054600200C46102000BF2A
:100B50000646A819A0420DD9324669460020AFF3D7
:100B60000080070008BF00F003F90098A04218BFFA
:100B70000546C419FFF7C8FF05600746F01D20F0C1
:100B800007004619284600F00AF8B44208BFF8BD2D
:100B9000A21B31463868BDE8F84000F0CFB800210C
:100BA0000160C0E9011070471020704770B504461D
:100BB000051FFFF7A9FF0068002C14BF446870BD33
:100BC000002C18BFAC423CBF20466468F8D30168D3
:100BD0000A18AA4218BF456003D12A680546114485
:100BE000016028684119A1421CBF6C6070BD61683A
:100BF000696021680844286070BD10B500F09AF85B
:100C0000006810BD10B5044600F094F8046010BDF3
:100C10002DE9F0470D4699469246044600F1240816
:100C20000168880604D5E06921F01001216000E028
:100C30000120A84201DD471B00E00027A1697A19C5
:100C400002EB0900081AA0612078C00602D42046F1
:100C5000FFF7F8FC002608E0D4E901211AF80600A5
:100C60009047206A401C761C20624E45F4DB2078B9
:100C7000C0060AD52046FFF7E5FC06E0D4E90121CD
:100C800030209047206A401C2062381EA7F10107DF
:100C9000F4DC07E0D4E9012118F805009047206A48
:100CA000401C2062281EA5F10105F3DC2046FFF759
:100CB000DFFC2078000602D50220BDE8F087012085
:100CC000FBE7000001694A1C02610878704700B523
:100CD0008FB0CDE901310021059105497944CDE975
:100CE000031011466846FFF765FD0FB000BD000018
:100CF000E5FFFFFF0A6802F8010B0A60704710B5B4
:100D0000436913B1AFF3008001E0FFF7C2FC01209B
:100D100010BD127800F124010A7000224A700122ED
:100D2000EDE711684FF0FF32E9E700000048704737
:100D3000848D002400487047848D00240346406859
:100D40008C46002818BF88423CBF03464068F8D351
:100D500018681844884207D00CF1030020F00700FF
:100D6000001D411A521A0146081D0A60FFF71EBFF6
:100D700010B500F039F8BDE8104000F02FB870470A
:100D80007546FFF7D3FFAE4605006946534620F08F
:100D90000700854618B020B5FFF788FBBDE8204066
:100DA0004FF000064FF000074FF000084FF0000B27
:100DB00021F00701AC46ACE8C009ACE8C009ACE8DA
:100DC000C009ACE8C0098D46704710B50446AFF3C2
:100DD00000802046BDE81040FFF7F4BA002801D09B
:100DE00000F02AB87047000010B5012805D0002196
:100DF00003A000F027F8012010BD09A1F8E70000CA
:100E000053494752544D454D3A204F7574206F66F3
:100E10002068656170206D656D6F7279000000005B
:100E20003A2048656170206D656D6F727920636F3F
:100E3000727275707465640001491820ABBEFEE7DC
:100E40002600020070B505460C460A2000E06D1C25
:100E500000F011F835B128780028F8D102E0641CC0
:100E600000F009F814B120780028F8D1BDE87040EE
:100E70000A20AFF3008008B569468DF80000032012
:100E8000ABBE08BD9FED201AB5EE002A00EE012A88
:100E90009FED1E1ABDEEC20AB5EEC02AF1EE10FAA1
:100EA00010EE100AB8BF013800EE100A0020B8EEAC
:100EB000C00A32EE400A9FED162A20EE010ABCEE6F
:100EC000C01A11EE101A30EE021AB0EB512F18BFF3
:100ED000002102EE101A49F6607000FE010AC0F609
:100EE0000100B8EE422A00EB810090ED011A30EECD
:100EF000420AB7EE002A32EE402A20EE010A90EDB7
:100F0000001A02EE010A704783F9223E00000044F5
:100F1000000000C4B0B503880D88AB4256D14588A7
:100F20004C88A54252D11488A3424FD15488A5427F
:100F30004CD105FB03FC436800254968B5EB9C0FC9
:100F4000506831D04FEA9C02524200BF93ED000A34
:100F500091ED001A30EE010A03F1100E01F11004B8
:100F600000F1100580ED000A013293ED010A91EDC8
:100F7000011A30EE010A80ED010A93ED020A91EDAB
:100F8000021A30EE010A80ED020A93ED030A91ED98
:100F9000031A30EE010A7346214680ED030A284603
:100FA000D4D12146284673461CF003020CD052428D
:100FB000B3EC010AB1EC011A30EE010A051D013251
:100FC00080ED000A2846F3D1002000E0FD2040B269
:100FD000B0BD018042804360704700002DE9F04FB2
:100FE0008BB0B0F800B0B0F802E0F34540F05181AA
:100FF0000B88FD229B4540F04D814F88BB4240F05D
:101000004981BBF1000F436800F029816FF00300B4
:101010004C6800EB8B08CDF81CE0002700934FF0E4
:101020007E5906945E462046BBEB060009D0B90007
:101030002046FFF73FFD00200130874204F1040401
:10104000FAD104F1040AC4F80090751E10D0A8EB80
:1010500087015046FFF72EFD01205446013086429D
:1010600004F10404FAD1002D07F101072E46DBD16B
:10107000BBF1000F009BDDF81CE000F0F0800420C5
:10108000CDF814B000EB8E0001901846ABF10106CC
:1010900003EB8E044FEA8E021D1DCEF100010023EA
:1010A00008919FED800A7746814600BF5B4580F03E
:1010B000F58003FB0EF0B0EE403A09EB80010A9197
:1010C00091ED001A0699B0EE414A01EB80000990BB
:1010D0002146304606E000BF91ED004A0138B0EEEF
:1010E000423A1144B5EEC04AF1EE10FA0ADDB4EE10
:1010F000C34AB0EE442AF1EE10FAD8BFB0EE432A4C
:1011000009E000BFB1EE442AB4EEC23AF1EE10FAA3
:1011100001DBB0EE432A0028DED1B5EE402AF1EE25
:1011200010FA00F0BB80B0EEC13AB4EE423AF1EEF4
:1011300010FA1CBFD84310EB0B0004D0002000BFF6
:1011400001308642FCD1B5EE401AF1EE10FA00F003
:10115000A580CDE90346AEEB030C0A99BCF1010F63
:101160004FF07E5008600AD00120294691ED002AF8
:1011700082EE012A01308742A1EC012AF6D1DDE995
:10118000080100BF91ED002A82EE012A0C1D0130FA
:1011900081ED002A2146F5D1ACF1010B05994FF004
:1011A0000008DDF818A04846CDF80890984505D10C
:1011B00000EB8C060AEB8E0A33E000BF90ED001ABC
:1011C0000A9CB0EE413ABBF1000F94ED002A01EE0B
:1011D000423A00F1040680ED003A15D001200024C7
:1011E00006EB040905EB040E99ED002A9EED003A8A
:1011F00001EE432A0130874204F1040489ED002AFC
:10120000EED12644DDF81CE0DDE908049AED002A61
:1012100094ED003A01EE432A04340130AAEC012A8D
:10122000F4D106EB8300013908F10108BED1DDF8E5
:101230000890013F049E09F10409039C03F1010396
:101240000198A6F101060444DDF814B005447FF4CA
:101250002DAFB5EE401A009BF1EE10FA20D10EFB37
:101260000BF1002000294FF000020BD093ED000A93
:10127000B5EE400AF1EE10FA04D101328A4203F1D0
:101280000403F3D38A4208BF6FF004000BB0BDE83B
:10129000F08FFD2250B20BB0BDE8F08FFB22F9E7D2
:1012A0000022F7E7000000002DE9F04F88B0B0F809
:1012B00002C00B889C4540F08880B0F800E013889D
:1012C0009E4540F08280B1F80290538899457CD1C8
:1012D0004FEA9C04476804FB09F049680CF00305D9
:1012E000029101EB0010019000202CF00303A0EB11
:1012F0009C0107EB830607914FEA89035168C5F10A
:10130000000A00919FED330ACDE9039CCDE9050E5B
:101310000099CE4601EB8008DDE901BC002CB0EE5F
:10132000401AE146384627D0624607993846B0EE63
:10133000401A00BF92ED002A90ED003A03EE021A27
:101340001A4490ED014A92ED002A04EE021A1A4462
:1013500090ED025A92ED002A05EE021A1A4490ED21
:10136000036A92ED002A06EE021A013100F1100024
:101370001A44DFD1D946304655B1514690ED002A86
:1013800099ED003A02EE031A043001319944F5D187
:1013900008F1040088ED001ABEF1010E0CF1040CF6
:1013A0000BF1040B8046B9D1DDF80C900598DDF8FF
:1013B00010C04844DDF818E007EB8C07BEF1010EC1
:1013C00006EB8C06A2D1002000E0FD2040B208B060
:1013D000BDE8F08F00000000B0B503880D88AB4277
:1013E00056D145884C88A54252D11488A3424FD18A
:1013F0005488A5424CD105FB03FC4368002549688D
:10140000B5EB9C0F506831D04FEA9C02524200BFAE
:1014100093ED000A91ED001A30EE410A03F1100E2F
:1014200001F1100400F1100580ED000A013293ED86
:10143000010A91ED011A30EE410A80ED010A93EDA7
:10144000020A91ED021A30EE410A80ED020A93ED94
:10145000030A91ED031A30EE410A7346214680EDEE
:10146000030A2846D4D12146284673461CF00302BD
:101470000CD05242B3EC010AB1EC011A30EE410A31
:10148000051D013280ED000A2846F3D1002000E05E
:10149000FD2040B2B0BD00002DE9F04F83B00288BE
:1014A0004B889A424DD144880B889C4249D10023F5
:1014B000D1F804804FEA940C416804F0030ECDF893
:1014C0000080A3EB94040294140196000194CEF1E1
:1014D000000B4046BCF1000F1ED04746029C00BFE7
:1014E00008683D4638603744486807EB0609A8514C
:1014F00001F11000D1F808A0013447F806A009EB6B
:101500000607C968374449F806100146E8D1019931
:101510006C18014603E000BF009800EB8304BEF1A5
:10152000000F07D05D4600BF51F8040B0135206065
:101530003444F9D10133013A08F10408CAD100203A
:1015400000E0FD2040B203B0BDE8F08F9FED1F1A10
:1015500020EE010A9FED1F2ABDEEC01AB5EEC00AAB
:10156000F1EE10FA11EE100AB8BF013801EE100AC0
:101570000020B8EEC11A30EE410A9FED151A20EE98
:10158000010ABCEEC01A11EE101A30EE021AB0EBCE
:10159000512F18BF002102EE101A49F6607000FEAC
:1015A000010AC0F60100B8EE422A00EB810090ED7E
:1015B000011A30EE420AB7EE002A32EE402A20EE3F
:1015C000010A90ED001A02EE010A704783F9223EEB
:1015D00000000044000000C470B505460C4600261B
:1015E0000DB1022C00D870BDA11E06480288284605
:1015F00002F0BEFE0646A01E2E54310A601E29547B
:1016000000BFF0E778030024D0ED650A90F891114F
:1016100000EB810191ED001A70EEC10AC0ED650A80
:10162000D0ED650A70EE800AC0ED650A90F8911160
:1016300000EB810181ED000A00F5C87090ED011A00
:10164000017800EE901AF8EE600AC1EE201AC0EDA3
:10165000021A4178491C417041780278A0F5C8709F
:10166000914202D1002180F891117047002207E0D9
:101670009FED0D0A00EB820383ED000A531C9AB222
:10168000642AF5DB642900DD642180F890110023D1
:1016900080F891319FED040A80ED660A9FED020A01
:1016A00080ED650A704700000000000010B50122BF
:1016B0001146024805F046FE10BD00000008025821
:1016C00010B500220121024805F03CFE10BD0000CB
:1016D0000008025810B5FFF7F3FF802000F060FB10
:1016E000552000F05DFB552000F05AFB5049087072
:1016F000FFF7DCFF012004F0D9FDFFF7E1FF8020B8
:1017000000F04EFB552000F04BFB552000F048FB4D
:1017100047490870FFF7CAFF012004F0C7FDFFF733
:10172000CFFFB6217E2000F06CFBFFF7BFFF5020FB
:1017300004F0BCFDFFF7C4FF802000F031FB552012
:1017400000F02EFB552000F02BFB39490870FFF705
:10175000ADFF012004F0AAFDFFF7B2FF802000F0EA
:101760001FFB552000F01CFB552000F019FB3049F1
:101770000870FFF79BFF012004F098FD2C480078CB
:101780001E2801D0FF2010BD00202A49087049E022
:10179000FFF796FF274A127802EB4202264B1A44C3
:1017A0005178244A127802EB4202985C00F029FB3F
:1017B000FFF77CFF012004F079FDFFF781FF1D4951
:1017C000097801EB41011C4A515C41F0800000F0B6
:1017D000E7FA552000F0E4FA552000F0E1FA144948
:1017E0000870FFF763FF012004F060FD11480078E6
:1017F00000EB40001049084440780D4909788842C0
:101800000BD00C48007800EB40000B49084480786E
:101810000A49097808430949087006480078401CBD
:1018200004490870034800780628B1DB0020AAE7C5
:101830001C0200241D020024280200241E02002491
:1018400070B504460D462248046000202149087006
:10185000FFF740FF1F49097808431E49087000F050
:1018600063F81C49097808431A4908701DB11A48E1
:1018700000F0E6FB28E09FED190A174880ED090A01
:101880009FED170A80ED0A0A9FED160A80ED0B0AFC
:101890009FED150A80ED0C0A9FED140A80ED0D0AEC
:1018A0009FED130A80ED0E0A9FED120A80ED0F0ADC
:1018B00090ED0F0ADFED100A80EE801A80ED081A15
:1018C0009FED0E0A80ED060A0248007870BD000008
:1018D000600200241E020024107B0024F0A032BA13
:1018E000B9F3AFBAB1EFBBBA0B6F993E2A98933DEB
:1018F000000000007A841D41C3F51C410000204215
:1019000010B501220821024805F01CFD10BD0000A1
:101910000008025810B500220821024805F012FD07
:1019200010BD00000008025810B5FFF7F3FF45494D
:10193000002000F05AFAFFF7E3FF012004F0B6FCA4
:10194000FFF7E8FF3F49002000F04FFAFFF7D8FF0C
:10195000012004F0ABFCFFF7DDFFB621142000F0FE
:1019600050FAFFF7CDFF502004F0A0FCFFF7D2FFA4
:101970003449002000F039FAFFF7C2FF012004F0DB
:1019800095FCFFF7C7FF2F49002000F02EFAFFF764
:10199000B7FF012004F08AFC2A4800780F2801D004
:1019A000FF2010BD00202849087045E0FFF7B2FF76
:1019B000254A127802EB4202244B1A445178224AFB
:1019C000127802EB4202985C00F01BFAFFF798FFD6
:1019D000012004F06BFCFFF79DFF1B49097801EB28
:1019E00041011A4A505C174900F0FFF9FFF788FFE0
:1019F000012004F05BFC1448007800EB4000134920
:101A0000084440780F490978884210D00E48007881
:101A1000401E0D4908700846007800EB40000C4954
:101A2000084480780B49097808430A490870064839
:101A30000078401C04490870034800780628B5DB8C
:101A40000020AEE71C0200241D0200243A020024FC
:101A5000280200241E02002470B504460D4600BF73
:101A600029462046FFF7ECFE0028F9D170BD0000A2
:101A700010B50446FFF724FE922000F091F90622EB
:101A8000C249122000F09EF9FFF710FEC04800780E
:101A9000002855D0BD484078000200B2BB49097803
:101AA0000843BC49088094ED0C0A0846B0F90000D0
:101AB00000EE900AF8EEE00AB74890ED001A60EEEA
:101AC000810A94ED081A10EE810A84ED000AAF48ED
:101AD000C078000200B2AD4989780843AD4908805A
:101AE00094ED0D0A0846B0F9000000EE900AF8EEF9
:101AF000E00AA94890ED001A60EE810A94ED081AF8
:101B000010EE810A84ED010AA0484079000200B27B
:101B10009E49097908439F4908800846B0F90000AA
:101B200000EE100AB8EEC00A9B48D0ED000A20EE85
:101B3000200AD4ED080A20EE200A84ED020A50E0C3
:101B400092484078000200B29049097808439149D0
:101B500008800846B0F9000000EE100AB8EEC00A8E
:101B60008D48D0ED000A20EE200AD4ED080A20EEC0
:101B7000200A84ED000A8548C078000200B283493B
:101B800089780843834908800846B0F9000000EED0
:101B9000100AB8EEC00A8048D0ED000A20EE200AF4
:101BA000D4ED080A20EE200A84ED010A7748407936
:101BB000000200B275490979084376490880084651
:101BC000B0F9000000EE100AB8EEC00A7248D0ED7D
:101BD000000A20EE200AD4ED080A20EE200A84ED47
:101BE000020AFFF797FE08226849002000F0EAF891
:101BF000FFF786FE654800780F284FD164480078CB
:101C0000F0B36248C078000200B2604989780843A6
:101C10006049088094ED090A0846B0F9000000EE1A
:101C2000900AF8EEE00A5D4890ED001A10EE810A85
:101C300084ED030A55484079000200B253490979FE
:101C400008435449088094ED0A0A0846B0F9000098
:101C500000EE900AF8EEE00A504890ED001A10EEFF
:101C6000810A84ED040A4948C079000200B247495C
:101C7000897908434749088094ED0B0A084600E03B
:101C80000DE0B0F9000000EE900AF8EEE00A4348DB
:101C900090ED001A10EE810A84ED050A44E03B48FD
:101CA000C078000200B23949897808433949088070
:101CB0000846B0F9000000EE100AB8EEC00A374836
:101CC000D0ED000A20EE200A84ED030A2F48407967
:101CD000000200B22D49097908432E4908800846C0
:101CE000B0F9000000EE100AB8EEC00A2B48D0EDA3
:101CF000000A20EE200A84ED040A2448C07900027C
:101D000000B2224989790843224908800846B0F97F
:101D1000000000EE100AB8EEC00A2048D0ED000A1C
:101D200020EE200A84ED050AFFF7CAFCA22000F08D
:101D300037F802221549222000F044F8FFF7B6FCDC
:101D400012480078C0001149497840EA61101149F1
:101D500008800846B0F90000B0F5806F05DB084642
:101D60000088A0F5006000B208800A48B0F90000C1
:101D700000EE100AF8EEC00AB4EE001AB3EE070A3D
:101D800000EE810A84ED070A10BD00005402002411
:101D9000240200245C0200241402002418020024FF
:101DA00001B582B04FF47A70012301AA02A9009014
:101DB0000348006808F09CFF9DF804000EBD000079
:101DC0006002002470B506460C46154646F08000B9
:101DD000FFF7E6FF06E05520FFF7E2FF2070641CE6
:101DE000681EC5B2002DF6D170BD70B504460D4613
:101DF00044F08000FFF7D4FF5520FFF7D1FF287093
:101E000070BD70B505460C462846FFF7C9FF204651
:101E1000FFF7C6FF70BDD2ED020A92ED021AB6EED0
:101E2000000A00EEC10AD2ED030A92ED031A00EE99
:101E3000C10AD0ED000A20EE200AD2ED010A92ED8F
:101E4000021A60EE810A92ED001AD2ED031A41EEF9
:101E5000610A90ED011A00EE810AD2ED010A92EDBD
:101E6000031A60EE810A92ED001AD2ED021A41EED9
:101E7000210A90ED021A00EE810AF0EE000A20EE2F
:101E8000200A81ED000A92ED010AD2ED020A20EE4D
:101E9000200AD2ED000A92ED031A00EE810AD0ED7D
:101EA000000A60EE200A92ED011AD2ED011AB6EE98
:101EB000000A01EE610AD2ED031A92ED032AB0EE98
:101EC000401A01EEC21AD0ED011AB0EE600A01EE1E
:101ED000210AD2ED020A92ED031A60EE810A92ED18
:101EE000001AD2ED011A41EE610A90ED021A00EEDD
:101EF000810AF0EE000A20EE200A81ED010A92ED3F
:101F0000010AD2ED030A20EE200AD2ED000A92ED7A
:101F1000021A00EEC10AD0ED000A20EE200AD2ED2E
:101F2000020A92ED031A60EE810A92ED001AD2EDD8
:101F3000011A41EE210A90ED011A00EE810A92ED9C
:101F4000011AD2ED011AF6EE000A41EE610A92ED95
:101F5000021AD2ED021A41EE610A90ED021A00EE69
:101F6000810AF0EE000A20EE200A81ED020A704795
:101F700000BFFEE70346042B15D007DC7BB1012B25
:101F80000ED0022B0DD0032B12D10BE0202B0BD047
:101F9000212B0AD0222B09D0232B09D107E008E0FE
:101FA00007E006E005E004E003E002E001E000E015
:101FB00000BF00BF002070470020704710B500220E
:101FC0000449054811F0E9FE0449034811F0D6FE22
:101FD000002010BDF021002414150024F019002465
:101FE00070B504460D462146034811F0C7FE02486D
:101FF00011F090FE002070BD1415002410B50346AA
:102000000C460021084610BD2DE9F04104460D465E
:1020100000260A48D0F8BC72D7F8140210B101208B
:10202000BDE8F0812A462146044811F0B6FE034877
:1020300011F066FF06463046F2E700001415002452
:1020400070B52DED048B88B00446002006900790F3
:1020500001F044FBFE4880ED000A00BF01F03EFBAA
:10206000FB48D0ED000A30EE600AF2EE040AB4EE4E
:10207000E00AF1EE10FA14DD9FEDF60A84ED090A8C
:102080009FEDF50A84ED0A0A9FEDF40A84ED0B0A30
:102090009FEDF30A84ED0F0A9FEDF20A84ED060A24
:1020A0005FE29FEDF10A01F0D5FA9FEDF00A84EDB1
:1020B0000F0A9FEDEE0A84ED090A9FEDEC0A84ED0C
:1020C0000A0A9FEDEA0A84ED0B0A002673E1FFF786
:1020D000F7FA9220FFF764FE062206A91220FFF706
:1020E00071FEFFF7E3FA9DF81900000200B29DF8B7
:1020F000181040EA010500EE105AB8EEC00ADC489C
:10210000D0ED000A20EE200A84ED000A9DF81B00A5
:10211000000200B29DF81A1040EA010500EE105AC4
:10212000B8EEC00AD248D0ED000A20EE200A84EDB5
:10213000010A9DF81D00000200B29DF81C1040EA43
:10214000010500EE105AB8EEC00AC948D0ED000AE9
:1021500020EE200A84ED020AD4ED000A60EEA00A07
:1021600094ED011AD4ED011A41EE210A94ED021A00
:10217000D4ED021A41EE210AB0EE600A14F095FE89
:10218000B0EE408A94ED0F0A30EE080A84ED0F0A93
:10219000FFF7C0FB082206A90020FFF713FEFFF798
:1021A000AFFB9DF818000F2850D19DF81B000002CE
:1021B00000B29DF81A1040EA010500EE105AB8EE80
:1021C000C00AAC48D0ED000A20EE200A84ED030AD4
:1021D00094ED090AD4ED030A30EE200A84ED090AD1
:1021E0009DF81D00000200B29DF81C1040EA010598
:1021F00000EE105AB8EEC00A9E48D0ED000A20EE5C
:10220000200A84ED040A94ED0A0AD4ED040A30EEA3
:10221000200A84ED0A0A9DF81F00000200B29DF812
:102220001E1040EA010500EE105AB8EEC00A9148AF
:10223000D0ED000A20EE200A84ED050A94ED0B0A89
:10224000D4ED050A30EE200A84ED0B0A06BBF0EE51
:10225000488AB0EE489A002017E004F10C0101EB27
:10226000800191ED000A03A901EB800181ED000AD4
:1022700004F10C0101EB800191ED000A694601EBCC
:10228000800181ED000A411CC8B20328E5DB49E06A
:10229000B4EEE88AF1EE10FA01DDF0EE488AB4EE11
:1022A000C98AF1EE10FA01D2B0EE489A002037E068
:1022B00004F10C0101EB800191ED000A03A901EB8F
:1022C0008001D1ED000AB4EEE00AF1EE10FA0ADD69
:1022D00004F10C0101EB800191ED000A03A901EB6F
:1022E000800181ED000A04F10C0101EB800191ED08
:1022F000000A694601EB8001D1ED000AB4EEE00A64
:10230000F1EE10FA0AD204F10C0101EB800191ED1B
:10231000000A694601EB800181ED000A411CC8B248
:102320000328C5DB38EEC90A534880ED000A0020B7
:1023300012E003A901EB800191ED000A694601EB6F
:102340008001D1ED000A30EE600A4C4901EB8001BA
:1023500081ED000A411CC8B20328EADB464890ED33
:10236000000AF6EE000AB4EEE00AF1EE10FA1BDC09
:10237000424890ED000ADFED420AB4EEE00AF1EEC9
:1023800010FA11DC90ED010ADFED3D0AB4EEE00A2F
:10239000F1EE10FA08DC90ED020ADFED390AB4EE36
:1023A000E00AF1EE10FA00DD0AE09FED360A01F0D6
:1023B00051F9701C86B2344800888642FFF687AE19
:1023C00000BFD4ED0F0A3048008800EE100AB8EEC6
:1023D000400A80EE801A84ED0F1A002015E004F107
:1023E000240101EB8001D1ED000A2749098800EEA4
:1023F000101AB8EE400A80EE801A04F1240101EBB5
:10240000800181ED001A411CC8B20328E7DBFFF709
:1024100057F9A220FFF7C4FC022206A92220FFF7E9
:10242000D1FCFFF743F99DF81800C0009DF8191082
:1024300040EA6115B5F5806F02DBA5F5006005B2D5
:1024400000EE105AF8EEC00AB4EE001A1EE00000CA
:102450004C020024F0A032BAB9F3AFBAB1EFBBBA64
:102460007A841D41000020420AD7A33B00000000EF
:10247000140200241802002420020024C87A002438
:102480009A99193E6F12033A50020024B3EE070ADC
:1024900000EE810A84ED060A7C480088401C00B2E8
:1024A0007A4908807A4890ED000AF6EE000AB4EE08
:1024B000E00AF1EE10FA3FF7D1ADD4ED0F0A9FED2F
:1024C000751A70EEC10AB0EE600A14F085FDF6EEE2
:1024D000000AB4EEE00AF1EE10FAECDC6E4890ED82
:1024E000000A5FED190AB4EEE00AF1EE10FAE2DC40
:1024F00090ED010A5FED1E0AB4EEE00AF1EE10FA6B
:10250000D9DC90ED020A5FED220AB4EEE00AF1EEAA
:1025100010FAD0DCD4ED090AB0EE600A14F05CFDCC
:10252000DFED5E0AB4EEE00AF1EE10FAC3DCD4EDA2
:102530000A0AB0EE600A14F04FFDDFED580AB4EE5F
:10254000E00AF1EE10FAB6DCD4ED0B0AB0EE600A48
:1025500014F042FDDFED510AB4EEE00AF1EE10FA9C
:10256000A9DC00BF94ED0F0ADFED4D0A80EE801A62
:1025700084ED081A002680E0FFF7A2F89220FFF70A
:102580000FFC062206A91220FFF71CFCFFF78EF8AD
:102590009DF81900000200B29DF8181040EA0105EC
:1025A00000EE105AB8EEC00A3E48D0ED000A20EE08
:1025B000200AD4ED080A20EE200A84ED000A94EDEA
:1025C0000C0AF6EE080A20EE200AD4ED000AB5EE59
:1025D000001A00EE810A84ED0C0A9DF81B0000022F
:1025E00000B29DF81A1040EA010500EE105AB8EE4C
:1025F000C00A2C48D0ED000A20EE200AD4ED080ACB
:1026000020EE200A84ED010A94ED0D0AF6EE080A88
:1026100020EE200AD4ED010AB5EE001A00EE810A80
:1026200084ED0D0A9DF81D00000200B29DF81C10FB
:1026300040EA010500EE105AB8EEC00A1948D0ED84
:10264000000A20EE200AD4ED080A20EE200A84EDCC
:10265000020A94ED0E0AF6EE080A20EE200AD4EDE6
:10266000020AB5EE001A00EE810A84ED0E0A1FED93
:102670007B0A00F0EFFF701C86B20B480088864290
:10268000FFF67AAF08B0BDEC048B70BD26020024C3
:1026900020020024CDCC1C41C87A00240AD7233C58
:1026A000C3F51C41140200245202002470B50446F4
:1026B0000D460022022104F1780014F0C5FC00222E
:1026C000032104F1B40014F0BFFC7C20015B002264
:1026D0002F4800F079FFB820015B00222C4800F061
:1026E00073FF284614F034F814212A48FEF7BEFF81
:1026F0009FED290A29480CF06DFC294815F09AFD38
:102700002849086028480068284908602848006867
:10271000486028480068886027480068C1F872004F
:10272000B4EE000A10EE100A08649FED240A10EEC1
:10273000100A48639FED220A10EE100AC1F85E00ED
:10274000204815F077FD1949C1F882006020A1F8F2
:102750004400002607E0B4F878207C20015B0C4898
:1027600000F011FF761C0A2EF5DBC82014F0B0FC37
:10277000002607E0B4F8B420B820015B044800F05C
:1027800002FF761C0A2EF5DBC82014F0A1FC70BDF8
:1027900064070024047F00246666663EA08000244F
:1027A0005604002438040024180600242C85002434
:1027B0001C060024200600242406002417B7D13864
:1027C0009A99193E4104002490ED250ADFED1F0A75
:1027D00030EE200ADFED1E0A30EE200A81ED180AE5
:1027E00090ED340ADFED190A30EE200ADFED180A09
:1027F00030EE600A81ED190A92ED1D0AB1EE400A31
:10280000DFED140A20EE200AD1ED310A9FED121AF5
:1028100000EE810A81ED310A92ED040AB1EE400A20
:10282000DFED0C0A20EE200AD1ED310A9FED0A1AE5
:1028300000EE810A81ED320A91ED310A80ED850AC0
:1028400091ED320A80ED860A70470000DB0FC93F28
:1028500097C6F03FCDCC4C3FCDCC4C3E00B589B0B7
:10286000242206496846FEF7C9F86A460021044852
:1028700014F0AAFC0349086009B000BDDC9D010802
:10288000892800080404002402E0022014F020FC3F
:102890000E4890F890000028F7D00D490D48FFF73A
:1028A00005FF01200C49087014F03BFC04460CE0C5
:1028B0000BF0EEFE14F035FC001B0849086014F024
:1028C00030FC0446601C14F012FCF1E7447D002447
:1028D000D8810024E8820024400400243C04002421
:1028E00070B504460D4600221146204614F0ACFB9C
:1028F0000022012104F13C0014F0A6FBA188002273
:102900002E4800F061FE4020015B00222B4800F0C1
:102910005BFE284613F01CFF14212948FEF7A6FE93
:102920009FED280A28480CF055FB284815F082FC3A
:102930002749086027480068274908602748006839
:10294000486027480068886026480068C1F872001F
:10295000B4EE000A10EE100A08649FED230A10EE90
:10296000100A48639FED210A10EE100A2049C1F8B1
:102970005E00204815F05EFC1749C1F88200602017
:10298000A1F84400002605E02288A1880B4800F049
:10299000FAFD761C0A2EF7DBC82014F099FB0026FE
:1029A00006E0A28F4020015B044800F0ECFD761C9D
:1029B0000A2EF6DBC82014F08BFB70BD64070024E0
:1029C000508800246666663EEC8900247A0600245E
:1029D0005C06002418060024B28500241C0600248E
:1029E000200600242406002417B7D1389A99193EEE
:1029F0002C850024650600241E4B93ED070ADFEDAD
:102A00001E0A30EE200ADFED1D0A30EE200A81EDAD
:102A1000180A93ED160ADFED180A30EE200ADFEDF2
:102A2000170A30EE600A81ED190A92ED1D0ADFEDFA
:102A3000140A20EE200AD1ED310A9FED121A00EEA1
:102A4000810A81ED310A92ED040ADFED0D0A20EED4
:102A5000200AD1ED310A9FED0B1A00EE810A81EDBB
:102A6000320A91ED310A80ED850A91ED320A80ED4E
:102A7000860A7047E8820024DB0FC93F97C6F03F03
:102A8000CDCC4C3FCDCC4C3E00B589B0242206497C
:102A90006846FDF7B3FF6A460021044814F094FB32
:102AA0000349086009B000BD089E0108B52A000866
:102AB0002806002402E0022014F00AFB0E4890F8D9
:102AC00090000028F7D00D490D48FFF709FF0120BD
:102AD0000C49087014F025FB04460CE00EF0F2FCE3
:102AE00014F01FFB001B0849086014F01AFB044691
:102AF000601C14F0FCFAF1E7447D0024C880002437
:102B0000E8820024640600246006002410B52DED40
:102B1000028B0446B0EE408B9FED3A0AC8EE000AE5
:102B2000B0EE608AF3EE040A88EE200ADFED360A82
:102B300020EE200AB0EE408A9FED330AB4EEC08A40
:102B4000F1EE10FA04DD9FED300AB0EE408A0AE0A3
:102B50009FED2E0AB4EEC08AF1EE10FA03D29FED7B
:102B60002B0AB0EE408ABDEEC80A10EE100A00B281
:102B70002749088008460088000A2649087024482A
:102B8000007848709FED1F0AC8EE800AF0EE608A58
:102B9000F3EE040A88EEA00ADFED1B0A20EE200AFD
:102BA000F0EE408A9FED180AF4EEC08AF1EE10FABA
:102BB00004DD9FED150AF0EE408A0AE09FED130A4E
:102BC000F4EEC08AF1EE10FA03D29FED100AF0EE97
:102BD000408ABDEEE80A10EE100A00B20C490880E7
:102BE00008460088000A0B49887009480078C870B8
:102BF00008230A469901204614F091F9BDEC028B96
:102C000010BD0000AAF1523E00008046000080C6C0
:102C1000080200240A02002410B5082A44D14B7887
:102C20000C7803EB042300EE103AB8EEC00A80EDF6
:102C3000080A8B781B021BB2CC78234400EE103AB2
:102C4000B8EEC00A80ED090A90ED090ADFED170A17
:102C500080EE201A80ED091A90ED090ADFED140AC2
:102C600080EE201A80ED091A0B791B021BB24C79F9
:102C7000234400EE103AB8EEC00A80ED0A0A90ED47
:102C80000A0ADFED0C0A20EE200AD0ED0B0A9FEDB8
:102C90000A1A00EE810A80ED0A0A8B7900EE103ADA
:102CA000B8EE400A80ED0E0A10BD00000000704230
:102CB0003C3C7C41CDCC4C3FCDCC4C3E30B503466A
:102CC0000C461546082D56D1207800F00F0098804C
:102CD00020780111D980A078617840EA01219960BB
:102CE000E0780001217940EA2111D96060792179E9
:102CF00001F00F0140EA012119611021F2EE090AE9
:102D0000BAEE090A986815F0D6FB83ED070A0C2184
:102D1000F3EE0E0ABBEE0E0AD86815F0CCFB83ED7D
:102D2000080A0C21F2EE040ABAEE040A186915F03A
:102D3000C2FB83ED090A93ED090ADFED0F0A20EECD
:102D4000200AD3ED0A0A9FED0D1A00EE810A83EDE9
:102D5000090AA07900EE100AB8EE400A83ED0D0AC8
:102D6000E07900EE100AB8EE400A83ED0E0A93ED0A
:102D7000090A83ED0A0A30BDCDCC4C3FCDCC4C3E88
:102D800030B503460C461546082D44D1207800F096
:102D90000F00988020780111D980A078617840EAEE
:102DA00001219960E0780001217940EA2111D96080
:102DB0006079217901F00F0140EA012119611021A8
:102DC000F2EE090ABAEE090A986815F074FB83ED71
:102DD000070A0C21F3EE0E0ABBEE0E0AD86815F0B6
:102DE0006AFB83ED080A0C21F2EE040ABAEE040A2B
:102DF000186915F060FB83ED090AA07900EE100A4E
:102E0000B8EE400A83ED0D0AE07900EE100AB8EE44
:102E1000400A83ED0E0A30BD10B5024802F050F8AA
:102E200010BD0000A00F002410B5024802F048F8C1
:102E300010BD00008011002410B5024802F040F8D7
:102E400010BD00001810002410B5024802F038F838
:102E500010BD00009010002410B5024802F030F8B8
:102E600010BD00000811002410B5024802F028F837
:102E700010BD0000F811002410B5024802F020F83F
:102E800010BD00007012002410B5024802F018F8BE
:102E900010BD0000E812002410B5024802F010F83E
:102EA00010BD00006013002410B5024802F008F8BD
:102EB00010BD0000D813002410B5024802F000F83D
:102EC00010BD00005014002410B5024801F0F8FFB6
:102ED00010BD0000540A002410B5024801F0F0FFB4
:102EE00010BD0000CC0A00240146374A0868904211
:102EF00049D0354A18320868904244D0324A3032BC
:102F0000086890423FD0304A4832086890423AD030
:102F10002D4A60320868904235D02B4A78320868D2
:102F2000904230D0284A9032086890422BD0264AEE
:102F3000A8320868904226D0244A0868904222D0DD
:102F4000224A1832086890421DD0204A3032086860
:102F5000904218D01D4A48320868904213D01B4A4C
:102F60006032086890420ED0184A78320868904261
:102F700009D0164A90320868904204D0134AA83209
:102F80000868904201D1012000E00020B0B10A7829
:102F9000103A1823B2FBF3F000F007020C4B9A5CD6
:102FA000CA65032805D90A686FF30902121D8A65EC
:102FB00003E00A686FF309028A6503E0086820F0FD
:102FC000FF008865886D70471000024010040240C1
:102FD000F499010810B502682B4C0368A34222D073
:102FE000294C14340368A3421DD0274C28340368AD
:102FF000A34218D0244C3C340368A34213D0224C83
:1030000050340368A3420ED01F4C64340368A342BB
:1030100009D01D4C78340368A34204D01A4C8C3478
:103020000368A34201D1012300E000238BB10378A0
:10303000083B1424B3FBF4F1144B03EB8103036648
:10304000124B8033436601F01F040123A3408366C3
:1030500018E00378103B1824B3FBF4F10C4B9A42B0
:1030600004D80B4BA83B9A4200D30831094B03EB21
:1030700081030366074B8033436601F01F0401237D
:10308000A340836610BD000008540258005802583F
:10309000B8040240000802400179A9B3082940D8C9
:1030A000204B02689A4222D01E4B143302689A4287
:1030B0001DD01C4B283302689A4218D0194B3C3360
:1030C00002689A4213D0174B503302689A420ED0CE
:1030D000144B643302689A4209D0124B7833026869
:1030E0009A4204D00F4B8C3302689A4201D10122DC
:1030F00000E000224AB14A1E0B4B03EB8202C2667B
:10310000094A4032026708E00BE04A1E074B03EB16
:103110008202C266054A403202674A1E012393407A
:10312000436770470854025800590258000902408A
:10313000014600208A69D2B98A6A32B1012A0DD0CB
:10314000022A03D0032A10D10EE000BFCA6A02F09F
:103150008072B2F1807F00D1012007E0CA6AB2F12B
:10316000C07F00D1012001E000E000BF36E08A69A5
:10317000B2F5005F1BD18A6A32B1012A07D0022A58
:1031800003D0032A11D10AE000BF01200EE0CA6A71
:1031900002F08072B2F1807F00D1012006E0CA6A9D
:1031A000B2F1C07F00D1012000E000BF16E08A6AC2
:1031B00032B1012A05D0022A04D0032A0CD103E03F
:1031C00000BF00BF012008E0CA6A02F08072B2F1BD
:1031D000807F00D1012000E000BF00BF70470000E9
:1031E000F0B5856D846D984F0668BE4270D0964FDD
:1031F00018370668BE426BD0934F30370668BE4220
:1032000066D0914F48370668BE4261D08E4F603716
:103210000668BE425CD08C4F78370668BE4257D0F5
:10322000894F90370668BE4252D0874FA83706684C
:10323000BE424DD0854F0668BE4249D0834F1837F5
:103240000668BE4244D0814F30370668BE423FD048
:103250007E4F48370668BE423AD07C4F60370668DA
:10326000BE4235D0794F78370668BE4230D0774FAE
:1032700090370668BE422BD0744FA8370668BE420E
:1032800026D0734F0668BE4222D0714F14370668AD
:10329000BE421DD06E4F28370668BE4218D06C4F14
:1032A0003C370668BE4213D0694F50370668BE42AD
:1032B0000ED0674F64370668BE4209D0644F783736
:1032C0000668BE4204D0624F8C370668BE4201D108
:1032D000012600E000263EB1D0E919767E60C66E78
:1032E00016B1D0E91C767E60574F0668BE4249D0C1
:1032F000554F18370668BE4244D0534F30370668E2
:10330000BE423FD0504F48370668BE423AD04E4F7B
:1033100060370668BE4235D04B4F78370668BE42EC
:1033200030D0494F90370668BE422BD0464FA83761
:103330000668BE4226D0454F0668BE4222D0434FA3
:1033400018370668BE421DD0404F30370668BE426F
:1033500018D03E4F48370668BE4213D03B4F603707
:103360000668BE420ED0394F78370668BE4209D093
:10337000364F90370668BE4204D0344FA8370668EF
:10338000BE4201D1012600E00026DEB190F85C606B
:1033900006F01F073F26BE40AE600668366826F47A
:1033A000802607683E60066873608668402E04D1F8
:1033B0000668B2600668F16044E00668B1600668BD
:1033C000F2603FE0224F0668BE4222D0204F143701
:1033D0000668BE421DD01E4F28370668BE4218D070
:1033E0001B4F3C370668BE4213D0194F5037066852
:1033F000BE420ED0164F64370668BE4209D0144F45
:1034000078370668BE4204D0114F8C370668BE423A
:1034100001D1012600E00026A6B190F85C6006F01C
:103420001F070126BE406660066873608668402EEE
:1034300004D10668B2600668F16003E00668B16016
:103440000668F260F0BD0000100002401004024067
:10345000085402582DE9F04F2DED068B83B08246BB
:103460000C46B0EE40AAB0EE608AF0EE418AB0EEB3
:10347000619AF0EE429A1FFA84FB1020B2EE091A0C
:10348000FAEE090AB0EE4A0A13F0C5FD85B20C2027
:10349000B3EE0E1AFBEE0E0AB0EE480A13F0BBFDB7
:1034A00086B20C209FED251ADFED250AB0EE680AE2
:1034B00013F0B1FD87B20C20B1EE041ADFED200A43
:1034C000B0EE490A13F0A7FD1FFA80F80C20B2EE07
:1034D000041AFAEE040AB0EE690A13F09CFD1FFA12
:1034E00080F928128DF80400E8B28DF80500C6F3C3
:1034F00007108DF806003007000E40EA27208DF8EF
:103500000700F8B28DF80800C8F307108DF809001D
:103510004FEA0870000E40EA29208DF80A0009F0F1
:10352000FF008DF80B00082301AA5946504613F0FE
:10353000F6FC03B0BDEC068BBDE8F08F0000FA434B
:10354000000000002DE9FC4106460C4615466019B6
:1035500087B2FF208DF800008DF801008DF8020081
:103560008DF803008DF804008DF805008DF8060035
:10357000FD208DF8070008236A463946304613F0CF
:10358000CEFCBDE8FC812DE9FC4106460C46154603
:10359000601987B2FF208DF800008DF801008DF8CA
:1035A00002008DF803008DF804008DF805008DF8F9
:1035B0000600FC208DF8070008236A46394630468D
:1035C00013F0ADFCBDE8FC812DE9FC4106460C463C
:1035D0001546601987B2FF208DF800008DF80100B4
:1035E0008DF802008DF803008DF804008DF80500B9
:1035F0008DF80600FE208DF8070008236A4639463C
:10360000304613F08CFCBDE8FC81000008B50D4885
:103610000078B0B901200B4908700B484068009051
:103620000A4900980968884204D209480068401C89
:1036300007490860054900980860002001490870A2
:1036400000BF08BDD8010024001000E0C80100241C
:10365000C40100240C494868F0EE400A00BF0A4942
:103660004968091A01EE101AF8EE411A074991ED5E
:10367000001AB8EE411A20EE811AF4EEC11AF1EEEA
:1036800010FAECD370470000001000E0B8010024ED
:1036900010B52DED028B82B004460E4840680190B3
:1036A00020680199081A00EE100AF8EE400A0A484C
:1036B00090ED000AB8EE400A80EE801AB0EE418A22
:1036C00001982060FFF7A2FFB0EE480A02B0BDECFF
:1036D000028B10BD001000E0B801002410B52DEDE4
:1036E000028B00F05DF80F4890ED000AB8EE400A3A
:1036F000808800EE900AF8EE600A9FED0B1A00EE4B
:10370000810A0848C08800EE900AF8EE600A9FED32
:10371000071A00EE810AB0EE408AB0EE480ABDEC0E
:10372000028B10BDB00100246F12833ABD3786357D
:1037300010B504461348006840F0807011490860D5
:103740000020114948600846006840F00100086008
:103750000E4860430E490860084600684FF47A71CD
:10376000B0FBF1F00B490860094800680749B0FB5D
:10377000F1F009490860002008490860FFF746FF9A
:1037800010BD0000FCED00E0001000E040420F0022
:10379000B8010024BC010024C0010024C40100249D
:1037A00038B5294840680090FFF730FF2748006887
:1037B0004FF0FF31A0FB01310098181841F10001D2
:1037C000234A03C2234800232149026803C9FCF7A6
:1037D000AEFE214A03C220480CC81E4800680024DF
:1037E000A2FB001503FB005002FB04021848D0E9BD
:1037F0000030591A60EB0200184AC2E9001016485E
:10380000006817490860174800231449026803C973
:10381000FCF78DFE124988800846808811490968A6
:1038200041430E48D0E90030591A60F100000E4AB9
:10383000C2E900100D4800230B49026803C9FCF7D8
:1038400076FE0749C88038BD001000E0C40100249E
:10385000D0010024B8010024E0010024E801002484
:10386000B0010024BC010024F0010024C0010024A8
:103870007047D2ED020A92ED021AB6EE000A00EE8F
:10388000C10AD2ED030A92ED031A00EEC10AD0ED8F
:10389000000A20EE200AD2ED010A92ED021A60EE33
:1038A000810A92ED001AD2ED031A41EE210A90ED41
:1038B000011A00EE810AD2ED010A92ED031A60EEC0
:1038C000810A92ED001AD2ED021A41EE610A90EDE2
:1038D000021A00EE810AF0EE000A20EE200A81EDC5
:1038E000000A92ED010AD2ED020A20EE200AD2ED82
:1038F000000A92ED031A00EEC10AD0ED000A60EE54
:10390000200A92ED011AD2ED011AB6EE000A01EE7C
:10391000610AD2ED031A92ED032AB0EE401A01EECD
:10392000C21AD0ED011AB0EE600A01EE210AD2ED02
:10393000020A92ED031A60EE810A92ED001AD2EDAE
:10394000011A41EE210A90ED021A00EE810AF0EE12
:10395000000A20EE200A81ED010A92ED010AD2ED63
:10396000030A20EE200AD2ED000A92ED021A00EEC0
:10397000810AD0ED000A20EE200AD2ED020A92ED73
:10398000031A60EE810A92ED001AD2ED011A41EE9F
:10399000610A90ED011A00EE810A92ED011AD2ED52
:1039A000011AF6EE000A41EE610A92ED021AD2ED1A
:1039B000021A41EE610A90ED021A00EE810AF0EE61
:1039C000000A20EE200A81ED020A704772B600BF9D
:1039D000FEE7000000B589B00020019002900220AF
:1039E0000390049000200590069001A9104802F071
:1039F0000EFD08B1FFF7EAFF002003460222114640
:103A000000900B4802F057FD08B1FFF7DFFF0022DE
:103A10001021074802F05EFC08B1FFF7D7FF044809
:103A200003F06CFB08B1FFF7D1FF09B000BD000047
:103A30006407002410B5024802F056FE10BD0000D5
:103A40006407002410B5024802F04EFE10BD0000CD
:103A50006407002400B589B0002001900290022084
:103A60000390049000200590069001A9104802F0F0
:103A7000CEFC08B1FFF7AAFF002003460222114640
:103A800000900B4802F017FD08B1FFF79FFF0022DE
:103A90001021074802F01EFC08B1FFF797FF044809
:103AA00003F02CFB08B1FFF791FF09B000BD000047
:103AB0000408002410B5024802F016FE10BD0000F4
:103AC0000408002410B5024802F00EFE10BD0000EC
:103AD0000408002400B589B0002001900320029062
:103AE000022003900120049000200590069001A977
:103AF000104802F08CFC08B1FFF768FF0020034675
:103B00000222114600900B4802F0D5FC08B1FFF7E5
:103B10005DFF00220121074802F0DCFB08B1FFF73E
:103B200055FF044803F0EAFA08B1FFF74FFF09B068
:103B300000BD0000A408002410B5024802F0D4FD26
:103B400010BD0000A408002410B5024802F0CCFD0E
:103B500010BD0000A408002410B501464A6B086897
:103B6000D0F884004FF6FC74A04340EA82000C6851
:103B7000C4F884000868D0F8840020F47F04088F1B
:103B800044EA00400C68C4F88400886B024408686A
:103B9000D0F888004FF6FC74A04340EA82000C681D
:103BA000C4F888000868D0F8880020F4FE04888FE4
:103BB00044EA00400C68C4F88800C86B02EB40027D
:103BC0000868D0F8A0004FF6FC74A04340EA8200D9
:103BD0000C68C4F8A0000868D0F8A00020F4FE0427
:103BE0004020405A44EA00400C68C4F8A000D1E9E3
:103BF000104004FB00220868D0F8B0004FF6FC74B7
:103C0000A04340EA82000C68C4F8B0000868D0F80D
:103C1000B00020F4FE04B1F8480044EA00400C680B
:103C2000C4F8B000D1E9124004FB00220868D0F8C3
:103C3000AC004FF6FC74A04340EA82000C68C4F864
:103C4000AC00D1E9144004FB00220868D0F8F00071
:103C50004FF6FC74A04340EA82000C68C4F8F00000
:103C60000868D0F8F00020F47C14B1F8580044EA59
:103C700000400C68C4F8F000886D02EB4002086850
:103C8000D0F8C0004FF6FC74A04340EA82000C68F4
:103C9000C4F8C0000868D0F8C00020F47C14B1F863
:103CA0005C0044EA00400C68C4F8C0000868D0F822
:103CB000C00020F07C5491F8600044EA00600C6879
:103CC000C4F8C0002A4C486B04EB8000C866CC6E78
:103CD000886B04EB80040C670C6FC86B04EBC004AA
:103CE0004C67D1E9100460434C6F04EB80048C678F
:103CF000D1E9120460438C6F04EB8004CC67D1E9F6
:103D000014046043CC6F04EB80048020445044587A
:103D1000886D04EBC004842044508C6EC86D6043F1
:103D20008424645804EB8004882044508C6E086E10
:103D300060438824645804EB800490204450405829
:103D40000C4CA04209D99831486840F020004860E6
:103D5000032001F89809012010BDCB6E02E000207D
:103D600018601B1D902040589842F8D80020F3E7B7
:103D700000AC0040FCD300402DE9F041054614465C
:103D80001E46D1F804C0BCF1000F0AD1D1F810C012
:103D9000D1F808804CEA080CB1F800804CEA88435E
:103DA0000BE0D1F810C04CF0804CD1F808804CEA00
:103DB000080CD1F800804CEA080391F82080D1F873
:103DC0001CC04CEA086CD1F818804CEA080CD1F8F9
:103DD00014804CEA080CB1F80C804CEA0847D5F87E
:103DE00068C00CFB06FCD5F8848008EB8C021360DD
:103DF000121D1760121D002019E000F1030C14F8C9
:103E00000CC04FEA0C6800F1020C14F80CC048EA30
:103E10000C4800F1010C14F80CC048EA0C2C14F802
:103E200000804CEA080CC2F800C0121D001DDFF82B
:103E30001480D1F80CC018F80CC08445DDD8BDE85A
:103E4000F0810000FC990108D0F86E1000EE101A05
:103E5000816900EE901A20EE200AB5EEC00AF1EE5C
:103E600010FA73DDD0F86E1000EE101AB5EEC00A2D
:103E7000F1EE10FA04DDD0F86E1000EE101A05E035
:103E8000D0F86E1000EE101AB1EE400AD0F85610BD
:103E900000EE901AB4EEE00AF1EE10FA00D8704786
:103EA00050F8521F00EE101A416800EE901A70EEA2
:103EB000200AC169523800EE101AB5EEC00AF1EEC0
:103EC00010FA04DDD0F86E1000EE101A05E0D0F8FC
:103ED0006E1000EE101AB1EE400AF4EEC00AF1EED8
:103EE00010FA2EDBD0F8521000EE901AD0F86E10B7
:103EF00000EE101AB5EEC00AF1EE10FA04DDD0F8AB
:103F00006E1000EE101A05E0D0F86E1000EE101AD8
:103F1000B1EE400A70EEC00AD0F8561000EE101A4A
:103F200030EE801AD0F8521000EE101AC1EE000ADE
:103F3000016900EE101A20EE800A10EE101A0161DD
:103F400004E09FED030A10EE101A016100BFA6E71E
:103F500000000000C16900EE101AD0F85E1000EEFB
:103F6000901AB7EE001A71EE600A20EE200AD0F81F
:103F70005A1000EE901AD0F85E1001EE101A00EE02
:103F8000810A10EE101AC1617047016B00EE101A21
:103F9000816A00EE901A70EE600A816800EE101AD5
:103FA00020EE800A10EE101AC1617047D0F87A1026
:103FB00000EE101AD0F8721000EE901A9FED201A41
:103FC00060EE810AB4EEE00AF1EE10FA0BD3416A1A
:103FD00000EE101AF0EEC00A9FED1A0AF4EEC00AC5
:103FE000F1EE10FA00D27047416A00EE901A816A31
:103FF00001EE101A30EEC10AF0EEC00A416A00EE7E
:10400000101AB0EEC01A80EE810ADFED0F0AB4EE8E
:10401000E00AF1EE10FA05DDB0F84710491CA0F8EF
:10402000471002E00021A0F84710B0F84710B1F5A2
:10403000FA7F02DD012180F8491000BFD3E70000BC
:104040006F12833A17B7D1383333733F816900EE6B
:10405000101A016900EE901A30EE200A484981EDED
:10406000000A416900EE101A816900EE901A70EEA4
:10407000200AC16900EE101A30EE800A414981ED34
:10408000000A91ED000AB5EEC00AF1EE10FA91EDCA
:10409000000AD1ED000AF1EE600A70FE200AD0F8A5
:1040A000721000EE101AF4EEC00AF1EE10FA35DDCF
:1040B000344991ED000AB5EEC00AF1EE10FA12DDB6
:1040C000D0F86E1000EE101A816900EE901A20EE02
:1040D000200AB5EEC00AF1EE10FA04DD9FED2A0ABF
:1040E00010EE101A0161274991ED000AB5EEC00AE1
:1040F000F1EE10FA12D2D0F86E1000EE101A8169AB
:1041000000EE901A20EE200AB5EEC00AF1EE10FA89
:1041100004D29FED1D0A10EE101A0161D0F876103E
:1041200000EE101A1649D1ED000AB4EEE00AF1EEE5
:1041300010FA07D29FED140A10EE101A0161D0F8A0
:1041400076108161D0F8761000EE101AB1EE400AB8
:104150000B49D1ED000AB4EEE00AF1EE10FA0DDDE4
:104160009FED090A10EE101A0161D0F8761000EEEA
:10417000101AB1EE400A10EE101A8161704700006B
:10418000900300248C03002400000000D0F87A1073
:1041900000EE101AD0F8721000EE901AB4EEE00A99
:1041A000F1EE10FA03DDD0F87210C0F87A10D0F8F2
:1041B0007A1000EE101AD0F8721000EE901AF1EE9C
:1041C000600AB4EEE00AF1EE10FA09D2D0F87210EB
:1041D00000EE101AB1EE400A10EE101AC0F87A1074
:1041E0007047D0F86E1000EE101AD0F86A1000EE8A
:1041F000901A30EE200AB0EE001AC0EE010A4168B3
:1042000000EE101A20EE800A10EE101A01617047BD
:104210003EB50446054802900194FF20ADF8000029
:1042200068460FF0F1F9024908603EBD35420008CA
:1042300074030024704700003EB52B4800683B28FB
:1042400005DA29480068401C274908601CE0002066
:1042500025490860254800683B2805DA234800689E
:10426000401C224908600FE00020204908602048D7
:104270000068172805DA1E480068401C1C490860C1
:1042800002E000201A4908601AA017490968174A75
:104290001268CDE9002102901548264A26A103683C
:1042A0002A48FCF7BBF929492948FCF71FFB284895
:1042B00012F050FE27490860084627A102682848E6
:1042C000FCF7ACF9264B214A26A11046FCF7A6F9CB
:1042D0001E48FCF72FFB84B2032322461B492348C8
:1042E00000680FF0D5F93EBD980200249C0200241E
:1042F000A00200242E30302C412C323233372E34A1
:1043000039363437342C4E2C31313335362E303863
:10431000393531352C452C302E302C3232352E3576
:104320002C3233303532302C322E332C572C412A5C
:1043300000000000880200242573253032642530F7
:10434000326425303264257300000000D47C0024E0
:10435000707C0024900200242530325800000000B8
:1043600094020024257325730000000074030024C8
:1043700030B5034613B94FF6FF7030BD09E013F8AE
:10438000014B82EA0400C0B2054D35F8100080EA06
:104390002222081EA1F10101F1D11046EDE7000033
:1043A000929B010870B50A480468001D0568001D4D
:1043B0000668344454B108220649204609F098FBA7
:1043C000042204491031284609F092FB70BD000018
:1043D00000E8F11F5A00002400B589B024220649E4
:1043E0006846FCF70BFB6A460021044812F0ECFE1D
:1043F0000349086009B000BD849E01080544000817
:104400004C07002402E0022012F062FE7C4890F883
:1044100090000028F7D0002204217A4812F014FE00
:104420000022052177483C3012F00EFE002509E0FD
:104430007448F038B0F8F020B0F8F4107248FFF784
:10444000A2F86D1C0A2DF3DBC82012F041FE0025F6
:1044500009E06C48F038B0F82C21B0F830116A4807
:10446000FFF791F86D1C0A2DF3DB9FED680A684891
:1044700080ED000A9FED650A80ED010A5A2065492A
:1044800008706048F03890ED430A614880ED000AFA
:104490005C48F03890ED520A5D4880ED010A12F058
:1044A00040FE044600BF5648006F5A49C1F801005B
:1044B0005348406FC1F805005148806FC1F80900AA
:1044C0005048F038D0F84801C1F80D004D48F03898
:1044D000D0F80C01C1F811004F4890ED2B0A4F485D
:1044E000D0ED2B0A70EE200AB0EE001A80EE810AA1
:1044F00010EE100AC1F815001B214648FDF76CF8B4
:104500001B214448FDF780FD1B21454812F0ECF9C2
:1045100020B11B2242494348FCF72BFA3948F038B6
:1045200090F8340240B33A48D0ED000AB0EE600A89
:104530003448F038B0F8F4109FED342AF6EE001A43
:10454000B1EE001ADFED380A2F48FEF783FF30483E
:10455000D0ED010AB0EE600A2A48F038B0F8301108
:104560009FED2A2AF6EE001AB1EE001ADFED2E0AB0
:104570002548FEF76FFF21E02248F038B0F8F4102C
:104580009FED222ADFED211A9FED201ADFED1F0A91
:104590009FED1E0A1C48FEF75DFF1A48F038B0F880
:1045A00030119FED1A2ADFED191A9FED181ADFED71
:1045B000170A9FED160A1448FEF74CFF0F211B48FF
:1045C00014F0AEFA1A48007801280CD1FFF734FE37
:1045D0001848FFF75DF8184880ED000A00201449DC
:1045E00008701649087012F09CFD001B1449086001
:1045F00012F097FD0446601D12F079FD53E70000AC
:10460000447D0024D88300246407002400000000B7
:104610003C070024308D0024C8800024D881002469
:10462000668D00244B8D0024CDCCCC3DD07B002466
:104630006007002450070024540700245807002472
:104640005C0700242DE9F041044602F081FE80461B
:1046500014B90120BDE8F08194F83500022808D093
:104660008020606500BF002084F8340000BF012076
:10467000F0E7FE492068884249D0FC49183120689B
:10468000884244D0F9493031206888423FD0F74908
:104690004831206888423AD0F44960312068884225
:1046A00035D0F24978312068884230D0EF499031D6
:1046B000206888422BD0ED49A8312068884226D056
:1046C000EB492068884222D0E949183120688842A5
:1046D0001DD0E74930312068884218D0E44948317C
:1046E0002068884213D0E2496031206888420ED0A9
:1046F000DF4978312068884209D0DD49903120684F
:10470000884204D0DA49A8312068884201D10120CA
:1047100000E0002068B12068006820F01E002168D9
:1047200008602068406920F08000216848612568A1
:1047300006E02068006820F00E0021680860256807
:10474000CA492068884270D0C84918312068884218
:104750006BD0C64930312068884266D0C3494831A1
:104760002068884261D0C1496031206888425CD0AD
:10477000BE4978312068884257D0BC4990312068C2
:10478000884252D0B949A831206888424DD0B849F2
:104790002068884249D0B64918312068884244D000
:1047A000B3493031206888423FD0B1494831206850
:1047B00088423AD0AE4960312068884235D0AC4951
:1047C00078312068884230D0A949903120688842E9
:1047D0002BD0A749A8312068884226D0A549206857
:1047E000884222D0A3491431206888421DD0A149B3
:1047F00028312068884218D09E493C312068884280
:1048000013D09C495031206888420ED099496431B8
:104810002068884209D0974978312068884204D0BE
:1048200094498C312068884201D1012000E00020A9
:1048300028B1206E006820F48070216E08608B49DA
:104840002068884249D0894918312068884244D07C
:1048500086493031206888423FD0844948312068F9
:1048600088423AD0814960312068884235D07F49FA
:1048700078312068884230D07C4990312068884265
:104880002BD07A49A8312068884226D07849206800
:10489000884222D076491831206888421DD0744958
:1048A00030312068884218D07149483120688842E8
:1048B00013D06F496031206888420ED06C4978313E
:1048C0002068884209D06A4990312068884204D023
:1048D0006749A8312068884206D12068006820F026
:1048E00001002168086005E02068006820F00100F0
:1048F0002168086011E002F02BFDA0EB08000528FC
:104900000BD920206065032084F8350000BF00200B
:1049100084F8340000BF01209CE6286800F0010004
:104920000028E8D151492068884249D04F491831C0
:104930002068884244D04D493031206888423FD0B9
:104940004A494831206888423AD048496031206855
:10495000884235D0454978312068884230D0434973
:104960009031206888422BD04049A8312068884285
:1049700026D03F492068884222D03D49183120681E
:1049800088421DD03A4930312068884218D03849D1
:1049900048312068884213D0354960312068884208
:1049A0000ED0334978312068884209D0304990319F
:1049B0002068884204D02E49A8312068884201D15D
:1049C000012000E0002040B1A66D94F85C0000F0EA
:1049D0001F013F208840B06007E0A76D94F85C009D
:1049E00000F01F010120884078602049206888423B
:1049F00076D01E4918312068884271D01B49303169
:104A0000206888426CD0194948312068884267D0B4
:104A1000164960312068884262D014497831206894
:104A200088425DD0114990312068884258D00F49A2
:104A3000A8312068884253D00D49206888424FD061
:104A40000B491831206888424AD009493031206822
:104A5000884245D0064948312068884240D0044900
:104A60006031206888423BD0014905E010000240D7
:104A700010040240085402587831206888422FD030
:104A80002549206888422BD0234918312068884264
:104A900026D022492068884222D02049143120683B
:104AA00088421DD01D4928312068884218D01B49F2
:104AB0003C312068884213D0184950312068884220
:104AC0000ED0164964312068884209D013497831E4
:104AD0002068884204D011498C312068884201D175
:104AE000012000E0002068B1D4E919104860E06EB0
:104AF00040B1E06E006820F48070E16E0860D4E997
:104B00001C104860012084F8350000BF002084F8A4
:104B1000340000BF00BF9DE5A004024008540258C5
:104B200070B504460CB9012070BD94F83500022818
:104B300003D0802060650120F6E7DC4920688842C8
:104B400049D0DA4918312068884244D0D7493031F9
:104B5000206888423FD0D5494831206888423AD001
:104B6000D24960312068884235D0D04978312068F8
:104B7000884230D0CD499031206888422BD0CB4933
:104B8000A8312068884226D0C9492068884222D0AE
:104B9000C7491831206888421DD0C5493031206886
:104BA000884218D0C24948312068884213D0C04991
:104BB0006031206888420ED0BD4978312068884233
:104BC00009D0BB4990312068884204D0B849A83147
:104BD0002068884201D1012000E00020F0B30420C9
:104BE00084F83500B149206888424BD0AF4918316C
:104BF0002068884246D0AD4930312068884241D093
:104C0000AA494831206888423CD0A84960312068D0
:104C1000884237D0A54978312068884232D0A349EC
:104C20009031206888422DD0A049A8312068884260
:104C300028D09F492068884224D09D491831206897
:104C400088421FD09A493031206888421AD098494A
:104C500048312068884215D0954900E020E0603155
:104C6000206888420ED0924978312068884209D065
:104C70008F4990312068884204D08D49A83120683E
:104C8000884206D12068006820F001002168086091
:104C900009E12068006820F001002168086002E155
:104CA0002068006820F00E00216808607F492068B5
:104CB000884249D07D4918312068884244D07B49D8
:104CC0003031206888423FD0784948312068884296
:104CD0003AD0764960312068884235D073497831BE
:104CE0002068884230D071499031206888422BD0AA
:104CF0006E49A8312068884226D06D4920688842D4
:104D000022D06B491831206888421DD06849303163
:104D10002068884218D0664948312068884213D0FC
:104D200063496031206888420ED06149783120683B
:104D3000884209D05E4990312068884204D05C499D
:104D4000A8312068884206D12068006820F0010060
:104D50002168086005E02068006820F001002168F3
:104D6000086052492068884270D050491831206844
:104D700088426BD04D4930312068884266D04B491B
:104D800048312068884261D04849603120688842B3
:104D90005CD0464978312068884257D043499031E9
:104DA0002068884252D04149A831206888424DD0BD
:104DB0003F492068884249D03D49183120688842DF
:104DC00044D03B493031206888423FD0384948318F
:104DD000206888423AD0364960312068884235D010
:104DE000334978312068884230D031499031206889
:104DF00088422BD02E49A8312068884226D02D49E0
:104E00002068884222D02B491431206888421DD066
:104E1000284928312068884218D026493C3120682A
:104E2000884213D023495031206888420ED021494E
:104E300064312068884209D01E4978312068884250
:104E400004D01C498C312068884201D1012000E047
:104E50000020D8B1206E006820F48070216E0860B8
:104E6000A56D94F85C0000F01F0101208840686087
:104E7000D4E919104860E06E40B1E06E006820F49B
:104E80008070E16E0860D4E91C104860012084F84D
:104E9000350000BF002084F8340000BF206D10B141
:104EA0002046216D884700203EE6000010000240A9
:104EB00010040240085402580146486D7047000033
:104EC0002DE9F84F044600200090FE4800684FF49A
:104ED0001651B0FBF1FAA66DD4F858803768D8F8AF
:104EE0000090F9492068884249D0F7491831206874
:104EF000884244D0F4493031206888423FD0F2499A
:104F00004831206888423AD0EF49603120688842B1
:104F100035D0ED4978312068884230D0EA49903167
:104F2000206888422BD0E849A8312068884226D0E2
:104F3000E6492068884222D0E44918312068884236
:104F40001DD0E24930312068884218D0DF4948310D
:104F50002068884213D0DD496031206888420ED035
:104F6000DA4978312068884209D0D84990312068E0
:104F7000884204D0D549A8312068884201D1012057
:104F800000E0002000287DD094F85C0000F01F01B4
:104F9000082088403840002868D0CB4920688842E3
:104FA00049D0C94918312068884244D0C6493031B7
:104FB000206888423FD0C4494831206888423AD0AE
:104FC000C14960312068884235D0BF4978312068B6
:104FD000884230D0BC499031206888422BD0BA49F1
:104FE000A8312068884226D0B8492068884222D05B
:104FF000B6491831206888421DD0B4493031206844
:10500000884218D0B14948312068884213D0AF494E
:105010006031206888420ED0AC49783120688842DF
:1050200009D0AA4990312068884204D0A749A83104
:105030002068884204D12068006800F0040003E082
:105040002068006800F0080080B12068006820F047
:1050500004002168086094F85C0000F01F0108203B
:105060008840B060606D40F00100606594F85C00BD
:1050700000F01F01012088403840E8B392492068C1
:10508000884200E0B7E24BD08F491831206888424F
:1050900046D08D4930312068884241D08A49483114
:1050A000206888423CD0884960312068884237D0E7
:1050B000854978312068884232D083499031206810
:1050C00088422DD08049A8312068884228D07F4965
:1050D0002068884224D07D491831206888421FD03A
:1050E0007A493031206888421AD07849483120689E
:1050F000884215D0754900E026E06031206888427A
:105100000ED0724978312068884209D06F499031B9
:105110002068884204D06D49A8312068884204D1B3
:105120002068406900F0800002E0206800680020EC
:1051300050B194F85C0000F01F0101208840B0607D
:10514000606D40F00200606594F85C0000F01F01A3
:10515000042088403840E8B35B49206888424BD03F
:10516000594918312068884246D057493031206863
:10517000884241D054494831206888423CD0524945
:1051800060312068884237D04F49783120688842A2
:1051900032D04D499031206888422DD04A49A831FB
:1051A0002068884228D049492068884224D047494D
:1051B0001831206888421FD0444930312068884225
:1051C0001AD0424948312068884215D03F496031A1
:1051D000206800E024E088420ED03C497831206805
:1051E000884209D0394990312068884204D0374933
:1051F000A8312068884204D12068006800F00200CD
:1052000002E020680068002050B194F85C0000F0D3
:105210001F0104208840B060606D40F004006065AC
:1052200094F85C0000F01F01102088403840E8B37B
:1052300025492068884251D0234918312068884286
:105240004CD0214930312068884247D01E4948312E
:105250002068884242D01C496031206888423DD095
:10526000194978312068884238D017499031206830
:10527000884233D01449A831206888422ED013497F
:10528000206888422AD0114918312068884225D0E8
:105290000E4930312068884220D00C4948312068BE
:1052A00088421BD009496031206800E04DE0884207
:1052B00014D006497831206888420FD003499031D4
:1052C000206805E094000024100002401004024011
:1052D000884203D0FE492068884204D120680068D3
:1052E00000F0080003E02068006800F0040060B3EC
:1052F00094F85C0000F01F0110208840B060206826
:10530000006800F4802080B12068006800F400206C
:1053100028B9206CC8B12046216C884715E0A06CE4
:1053200098B12046A16C88470FE02068006800F41F
:10533000807028B92068006820F0080021680860A3
:10534000206C10B12046216C884794F85C0000F076
:105350001F0120208840384000287DD0DD4920688A
:10536000884249D0DB4918312068884244D0D94965
:105370003031206888423FD0D64948312068884281
:105380003AD0D44960312068884235D0D14978314B
:105390002068884230D0CF499031206888422BD095
:1053A000CC49A8312068884226D0C949A83920684C
:1053B000884221D0C6499039206888421CD0C4490F
:1053C00078392068884217D0C149603920688842FE
:1053D00012D0BF494839206888420DD0BC493039C5
:1053E0002068884208D0BA4918392068884203D01A
:1053F000B7492068884204D12068006800F0100096
:1054000003E02068006800F0020028B394F85C0014
:1054100000F01F0120208840B06094F83500042877
:105420002DD12068006820F01600216808602068EF
:10543000406920F0800021684861206C08B9A06CA8
:1054400028B12068006820F008002168086094F8FE
:105450005C0000F01F0100E03FE03F208840B060AA
:10546000012084F8350000BF002084F8340000BF1C
:10547000206D10B12046216D8847BDE8F88F206867
:10548000006800F4802080B12068006800F40020EB
:1054900028B9606C08B32046616C88471DE0E06B5A
:1054A000D8B12046E16B884717E02068006800F417
:1054B000807068B92068006820F0100021680860DA
:1054C000012084F8350000BF002084F8340000BFBC
:1054D000E06B10B12046E16B8847606D00287AD000
:1054E000606D00F00100E8B3042084F835007949CC
:1054F000206888424BD0774918312068884246D0CE
:10550000744930312068884241D07249483120685E
:1055100088423CD06F4960312068884237D06D495D
:1055200078312068884232D06A49903120688842B8
:105530002DD06849A8312068884228D06449A8390C
:105540002068884223D062499039206888421ED062
:105550005F4978392068884219D05D4960392068F0
:10556000884200E040E012D059494839206888421A
:105570000DD0574930392068884208D0544918392D
:105580002068884203D052492068884206D12068AA
:10559000006820F001002168086005E020680068CC
:1055A00020F001002168086000BF0098401C0090B6
:1055B000504500D905E02068006800F0010000288F
:1055C000F3D100BF2068006800F0010020B1032083
:1055D00084F8350003E00DE0012084F8350000BFB9
:1055E000002084F8340000BFE06C002802D0204680
:1055F000E16C8847D9E138492068884222D0364991
:105600001431206888421DD03349283120688842EF
:1056100018D031493C312068884213D02E4950318E
:10562000206888420ED02C4964312068884209D015
:10563000294978312068884204D027498C31206874
:10564000884201D1012000E000200028D2D020684B
:10565000056894F85C0000F01F010420884000EA0F
:105660000900D8B305F00400C0B394F85C0000F062
:105670001F0104208840C8F8040005F4004080B1F0
:1056800005F4803030B9A06C0028B3D02046A16C5E
:1056900088478AE1206C0028ACD02046216C8847DE
:1056A00083E105F02000E8BB0A492068884253D016
:1056B00008491831206888424ED0064930312068A8
:1056C000884249D0034948312068884244D006E0E6
:1056D000B804024010000240085402584FE0B44998
:1056E00060312068884237D0B149783120688842DB
:1056F00032D0AF499031206888422DD0AC49A831D2
:105700002068884228D0AB492068884224D0A94923
:105710001831206888421FD0A6493031206888425D
:105720001AD000E025E0A34948312068884213D010
:10573000A0496031206888420ED09E4978312068A7
:10574000884209D09B4990312068884204D0994909
:10575000A8312068884206D12068006820F008003F
:105760002168086005E02068006820F004002168D6
:105770000860206C10B32046216C884715E194F82E
:105780005C0000F01F010220884000EA0900E8B335
:1057900005F00200D0B394F85C0000F01F01022075
:1057A0008840C8F8040005F4004070B105F480306A
:1057B00028B9606C10B12046616C8847F5E0E06B59
:1057C000F0B32046E16B8847EFE005F02000C0BB56
:1057D0007749206888424ED0754918312068884240
:1057E00049D0734930312068884244D070494831EB
:1057F000206888423FD06E496031206888423AD0A4
:105800006B4978312068884235D000E04EE0684925
:105810009031206888422ED06549A831206888429E
:1058200029D064492068884225D06249183120680F
:10583000884220D05F493031206888421BD001E087
:105840006EE02DE05B4948312068884213D0594909
:105850006031206888420ED05649783120688842ED
:1058600009D0544990312068884204D05149A83168
:105870002068884206D12068006820F01400216862
:10588000086005E02068006820F00A0021680860D0
:10589000012084F8350000BF002084F8340000BFE8
:1058A000E06BE8B32046E16B88477EE094F85C004B
:1058B00000F01F010820884000EA090080B305F0CD
:1058C000080068B33A49206888424BD038491831FB
:1058D0002068884246D0364930312068884241D01D
:1058E00033494831206888423CD0314960312068D2
:1058F000884237D02E4978312068884232D02C49EE
:105900009031206888422DD02949A83120688842EA
:1059100028D028492068884224D02649183100E040
:1059200043E0206888421DD02249303120688842F7
:1059300018D0204948312068884213D01D49603171
:10594000206888420ED01B4978312068884209D0EF
:10595000184990312068884204D01649A83120683F
:10596000884206D12068006820F01C002168086089
:1059700005E02068006820F00E002168086094F8B7
:105980005C0000F01F0101208840C8F804000120DD
:10599000606584F8350000BF002084F8340000BF43
:1059A000E06C10B12046E16C884700BF65E500005F
:1059B00010000240100402402DE9F041044601F0BD
:1059C000C7FC804614B90120BDE8F081FE4920687B
:1059D000884249D0FC4918312068884244D0FA49AD
:1059E0003031206888423FD0F749483120688842EA
:1059F0003AD0F54960312068884235D0F249783193
:105A00002068884230D0F0499031206888422BD0FD
:105A1000ED49A8312068884226D0EC4920688842A8
:105A200022D0EA491831206888421DD0E749303138
:105A30002068884218D0E54948312068884213D050
:105A4000E2496031206888420ED0E0497831206810
:105A5000884209D0DD4990312068884204D0DB4972
:105A6000A8312068884201D1012000E000200028F0
:105A700073D0606A00B100BF022084F8350000BF17
:105A8000002084F8340000BFCF492068884249D004
:105A9000CD4918312068884244D0CB493031206844
:105AA00088423FD0C8494831206888423AD0C64928
:105AB00060312068884235D0C349783120688842F7
:105AC00030D0C1499031206888422BD0BE49A831DE
:105AD0002068884226D0BD492068884222D0BB4930
